:020000040800F2
:10000000201B0020CD000008114A0008593C0008C0
:1000100000000000000000000000000000000000E0
:10002000000000000000000000000000B979000896
:100030000000000000000000A1750008357B0008EA
:10004000DF00000800000000DF000008DF000008FB
:10005000DF000008A5080008DF000008E10800082C
:1000600000000000DF000008DF000008DF000008DB
:10007000DF000008DF000008DF00000800000000CB
:10008000657C0008DF00000800000000DF000008B9
:10009000DF000008DF000008DF000008DF000008C4
:1000A000DF000008DF000008DF000008C18700084B
:1000B000D18700080448854600F0BAF80048004798
:1000C000DD990008C046C046201B00200448804738
:1000D00004480047FEE7FEE7FEE7FEE7FEE7FEE72F
:1000E000097C0008B500000830B50B460146002029
:1000F0002022012409E00D46D5409D4205D31D462E
:100100009540491B2546954040191546521E002D25
:10011000F1DC30BD70B500242546002801DA012449
:100120004042002901DA01254942FFF7DDFFAC42D8
:1001300000D04042002C00D0494270BD10B5202AAA
:1001400004DB0846203AD040002110BD0B46D340C6
:10015000D0402024A21A91400843194610BD0346FE
:100160000B439B0703D009E008C9121F08C0042AEB
:10017000FAD203E00B780370401C491C521EF9D2DE
:100180007047D2B201E00270401C491EFBD270479A
:100190000022F6E710B513460A4604461946FFF753
:1001A000F0FF204610BD421C0178401C0029FBD105
:1001B000801A704710B5002200E0521C835C8C5CF2
:1001C000A34201D1002BF8D1D8B2E1B2401A10BD40
:1001D000F0B51FB40646002082B0054640240191C8
:1001E00000901BE0019922460F463046FFF7A6FF1C
:1001F000049A059B801A994110D31046194622464D
:1002000000F028F8361A8F4101972246012000217C
:10021000009F00F01FF838184D4100902046641EE2
:100220000028DFDC019B00982946324607B0F0BD6C
:10023000064C0125064E05E0E36807CC2B430C3C39
:1002400098471034B442F7D3FFF738FF50EF000857
:1002500070EF000810B5202A04DB0146203A9140D7
:10026000002010BD914020239C1A0346E34019430F
:10027000904010BD70B58C180578401C6B075B0F63
:1002800001D10378401C2A1106D10278401C03E0FA
:1002900006780E70401C491C5B1EF9D12B0705D453
:1002A0000023521E0DD40B70491CFAE70378401C42
:1002B000CB1A921C03E01D780D70491C5B1C521E6A
:1002C000F9D5A142D8D3002070BD70B504460068AE
:1002D0008168490720D5816810264907002905DA79
:1002E0008168890702D481683143816001F08EFD05
:1002F00005460DE001F08AFD401B022808D9606C1C
:1003000030436064A06C01210843A064084670BDBE
:10031000206880684007EDD4002070BDF8B5044621
:10032000006881688907890F012928D10168C907F8
:1003300002D1C168090422D5816805221140102527
:10034000012601290FD181680222114381602168B1
:100350000320086001F05AFD07460CE001F056FD4D
:10036000C01B022807D9606C28436064A06C30432E
:10037000A0640120F8BD20688068C007EED100208D
:10038000F8BD0000F8B504460020009020688168A0
:100390008907890F012905D10168C9072CD1C168D6
:1003A000090429D48168154A102611400125002925
:1003B00015D1816829438160124811490068FFF70F
:1003C00093FE00E0401E00900028FBD101F01EFDCE
:1003D00007460CE001F01AFDC01B022807D9606C2B
:1003E00030436064A06C2843A0640120F8BD2068FD
:1003F0000068C043C007EDD10020F8BD17000080A1
:1004000040420F000C00002010B507F02FF910BD7E
:1004100010B507F05FF910BD0D480C4981630D4917
:10042000C1630D4901640D4941640D4981640D4961
:10043000C1640D4901650D4941650D4981650D494D
:1004400001660D49C1650D49416670471992000862
:1004500044070020099200083D400008D50E00081E
:100460000D11000881890008FD500008F1120008F4
:1004700099490008290B0008D90B00084B760008A1
:1004800070B50446C078082848D2A078012842D820
:1004900060781F2201280AD82078002804D0401E46
:1004A00020700C21617030E063212170F9E7401E5B
:1004B000C1B26170012928D0032926D0052924D092
:1004C000072922D0082920D00A291ED004291ED0AD
:1004D00006291CD009291AD00B2918D020788007AA
:1004E00017D01C21A170E0781030E0700CA008F04B
:1004F00099FA0025615D10A008F094FA6D1C062D94
:10050000F8DB0EA008F08EFA70BDA270EBE71E219A
:10051000E8E71D21E6E7401EA070E4E70838E4E7BD
:100520005554432D38B5B1C7B0B8F1C1D6CAB1BC26
:10053000E4CEAA203A20000025642D000D0A000018
:1005400000B50B4887B04269012189040A43426122
:100550004069084005904812009001200190002059
:1005600003906946034801F0A1FB07B000BD0000FD
:10057000001002400004004810B501210022490289
:10058000014801F03CFC10BD0004004810B50122F8
:100590005102024801F033FC10BD00000004004885
:1005A00070B50C46054607F05CF8A04301462846A6
:1005B00008F032FA70BD10B580210A2007F02AFA3F
:1005C0000A200CF063FA002801D0002010BD0120A1
:1005D00010BDF8B5CD08164649074207490FC408B3
:1005E000520F0091002817D0A5422BD90820801A5D
:1005F00007F0A4F831780140185D08431855601CD5
:10060000854216D9012000212A1B521E94460EE075
:10061000315C1954401CC0B2A842F9D300980BE0D9
:10062000325C2718401C491CDA55C0B2C9B28C454F
:10063000F6DC0098002804D003F010FD715D08403E
:100640005855F8BD084603F009FD31780840195D9A
:1006500001431955F8BD000070B50F4B00215A1821
:10066000A032527B012A0ED100228C00E418A5187A
:10067000E0356D7F865CB54205D1032A09D0521C56
:10068000D2B2042AF3D3491CC9B25029E7D30020BF
:1006900070BD491CC8B270BD480B0020F1B50020E8
:1006A0008CB0039004900590079004460890314860
:1006B000001960308079012851D12F480026099017
:1006C0004AE00620214641432A480D182A48009551
:1006D0008038801960356030297C027C914238D1A5
:1006E000697C427C914234D1A97C827C914230D198
:1006F000E97CC07C81422CD120A008F093F9297DAF
:1007000026A008F08FF9002709E00C98F119415C48
:1007100003A8C1552BA008F085F97F1CFFB2287DE6
:10072000B842F2D829A008F07DF92A7D07A903A8CC
:1007300000F088F9002007A9009A0B5C12186032BB
:10074000127C9A4205D1052810D0401CC0B2062860
:10075000F2D3761C0998F6B2807BB042B1D8641C03
:10076000E4B20A2CA3D300200DB0F0BD641CE0B2AB
:10077000FAE70000480B0020C4070020C7B0CBC434
:10078000CEBBCFE0CDACA3ACBDABCAE4C8EBC3DC01
:10079000C2EBBDF8D0D0BCD3C3DC0A007077645F75
:1007A0006C6973742E757365725F7077645F6275C0
:1007B0006665725B695D5B345D203D20307825782D
:1007C0000A00000030782578200000000D0A0000A3
:1007D00010B50022835C8C5CA34205D1062A05D0AB
:1007E000521CD2B2072AF5D3002010BD012010BD43
:1007F00010B5214800214172042202728172C17237
:100800000173417381732030817302464176203237
:100810001171022393745171D1748186D17511764F
:10082000517691759176D176117740304171817111
:10083000C17112488170012151770A21C01CFFF754
:10084000A7FC0D481E211030FFF7A2FC0A480A2120
:100850002F30FFF79DFC08480A213A30FFF798FC3B
:1008600005480C214630FFF793FC034807215E3012
:10087000FFF78EFC10BD0000A4070020A00A002096
:1008800010B504460068054940181421FFF72CFCF8
:10089000800020640248E06310BD0000F8FFFDBF47
:1008A0000000024010B50C4C0221204601F0A2FAD3
:1008B00000280BD00121204601F09CFA002807D027
:1008C0000648022141610121416110BD022000E082
:1008D000012001F04DF910BD000400480004014062
:1008E00070B52021114801F085FA002816D009259D
:1008F000ED061021284601F07DFA012810D00124D0
:1009000024032146284601F075FA00280CD0084837
:100910004461102141612021416170BD202000E02F
:10092000102001F025F970BD2046FAE700040048C8
:1009300000040140FEB5064600201E4900906D46A9
:1009400001900A186032127C2A54401CC0B206285A
:10095000F7D36879642803D96421FFF7C5FB0846FB
:100960006946487100240025671C6846405D0A21DD
:100970000290FFF7B9FB79434800091802986D1CF3
:100980000818315DEDB248403055062DEDD3FCB26C
:10099000062CE8D308A008F045F80024315D0BA030
:1009A00008F040F8641CE4B2062CF7D308A008F065
:1009B00039F8FEBD480B0020BCD3C3DCB9DCC0ED68
:1009C000D4B1C3DCC2EBCEAAA3BA000025642C00CC
:1009D0000D0A000070B50C46054604212046FFF7BD
:1009E000D7FB0022A85CA054521CD2B2032AF9D330
:1009F00000221146AB5CE078413159184840521C46
:100A0000D2B2E070062AF4D307A008F00BF8002554
:100A1000615D09A008F006F86D1CEDB2042DF7D356
:100A200007A007F0FFFF70BDBCD3C3DCBAF3BFA8BB
:100A3000BAC5CEAAA3BA00003078257820200000DD
:100A40000D0A000070B50C460646154606212046E4
:100A5000FFF79EFB0020315C2154401CC0B20428EB
:100A6000F9D32571002308E0F25C19466079413121
:100A7000511848405B1C6071DBB2AB42F4D308A054
:100A800007F0D0FF0025615D09A007F0CBFF6D1CCA
:100A9000EDB2062DF7D308A007F0C4FF70BD00002B
:100AA000BCD3C3DCBAF3C3DCC2EBCEAAA3BA00004A
:100AB00030782578202000000D0A000070470000E3
:100AC00006490020C86106480169042211430161FA
:100AD00001694022114301617047000010080020A5
:100AE00000200240064A0021D16106490A6902231A
:100AF0001A430A614861086940221043086170473F
:100B0000100800200020024010B5054B0022DA61D9
:100B1000044A1369012423431361018010BD0000BE
:100B2000100800200020024000B5002808D001284D
:100B300005D1FF22923204493E2000F073FB00BD34
:100B4000912202493D20F8E78C0D0020480B00203F
:100B500010B50B4A0020D168CB060A4904D5C869F4
:100B600002231843C8611020D3685B0705D5CB6901
:100B700001242343CB6104210843D06010BD000051
:100B8000002002401008002070B5054601F03EF933
:100B90000646104C0AE0681C08D0002D04D001F075
:100BA00035F9801BA84201D9032070BDE068C00759
:100BB000F1D1E068800601D52020E060E068C00641
:100BC00002D4E068400703D5FFF7C2FF012070BDE3
:100BD000002070BD0020024010B5002808D0012878
:100BE00005D1FF22923204493E2000F02BFB10BDBC
:100BF000912202493D20F8E78C0D0020480B00208F
:100C0000F0B5022509270024FF06AE0285B00028B2
:100C10003BD0FFF7BBFC012008F0F6FA2020009043
:100C2000032003900195029569460494384601F02B
:100C30003DF84020009069460494384601F036F8AB
:100C40008020009069460494384601F02FF8002275
:100C50002021384601F0D3F800224021384601F027
:100C6000CEF800228021384601F0C9F80120019019
:100C7000694600960494384601F018F8012231467E
:100C8000384601F0BCF805B0F0BD012008F0BCFA10
:100C9000FFF772FCC2E710B501220920D102C0069D
:100CA00001F0ADF80020FFF7ABFF012008F0ACFA2F
:100CB0000120FFF7A5FF012008F0A6FA10BD10B52E
:100CC0000F21012007F0A8FE10210C2006F0A2FE43
:100CD00010BD000070B5104B00229918A031497B5F
:100CE00001290ED100219400E4186518E0356D7FCC
:100CF000465CB54205D1032909D0491CC9B2042973
:100D0000F3D3521CD2B2502AE7D3002070BD03A007
:100D100007F088FE012070BD480B0020BFA8BAC5AF
:100D2000D6D8B8B40A00000070B5114B00215A188B
:100D300060329279012A0FD1062400224C43E41834
:100D4000A51860352D7C865CB54205D1052A09D0F1
:100D5000521CD2B2062AF3D3491CC9B20A29E6D3DF
:100D6000002070BD03A007F05DFE012070BD0000F3
:100D7000480B0020C3DCC2EBD6D8B8B40A00000090
:100D80001FB50020009001900290014603906A4632
:100D9000192000F065F91FBD1FB50C49E3234A78FF
:100DA0001A4008324A70002100910191029103918A
:100DB000694608706A460421112000F051F9FF20AD
:100DC0002D3008F021FA08F06BFB1FBDA00A0020AF
:100DD0001FB50B48C022017811430170002000901C
:100DE00001900290014603906A46122000F038F903
:100DF000FF202D3008F008FA08F052FB1FBD00005C
:100E0000A00A0020064A074993688B4201D219467E
:100E100002E00449FF3991600870491C91607047F5
:100E2000180000202E0A002000B5104887B0426943
:100E3000012149040A43426140690840059010209D
:100E400000900B4801900020029003900920694611
:100E5000C00600F02BFF01220221072001F0ECFA6E
:100E6000072001F0DFFA07B000BD000000100240CB
:100E700000001110074900208B68CA68934208D00F
:100E80000548824201D3FF38C860CA681078521CF6
:100E9000CA607047180000202E0A002000B50C48D8
:100EA00087B04269012149040A4342614069084010
:100EB00005900220009001200190002002900390F4
:100EC00009206946C00600F0F1FE07B000BD000031
:100ED0000010024070B5114C0925ED06617801281B
:100EE0000FD000280CD101290AD10DA007F09AFDDE
:100EF00000220221284600F082FF0020207060704E
:100F000070BD0029FCD10AA007F08CFD012202214E
:100F1000284600F074FF0120F1E7000018000020CF
:100F2000B9D8B1D5D6B8BEB2C2F6B5E7D4B40A00C6
:100F3000BFAAC6F4D6B8BEB2C2F6B5E7D4B40A00AA
:100F400010B54418E278142A1DD008DC012A10D00C
:100F5000112A15D0122A01D108F070FB10BD162AF3
:100F60001BD0172A1CD0192AF8D10FA007F05AFD60
:100F700010BD12A007F056FD13490120087010BDE6
:100F800008F03EFB10BD11A007F04CFD1448E179BC
:100F9000017014A007F046FD10BD08F0F9FA10BD6D
:100FA00008F05CFB10BD0000D6D0B6CFB5B1C7B01D
:100FB000D6B8C1EEB3C9B9A60A000000C1ACBDD312
:100FC000B3C9B9A60A00000018000020B2E9D1AFE9
:100FD000D6B8BEB2C2F6D3C3BBA7CAFDC1BF0A0012
:100FE000480B0020D6B8BEB2C2F6D3C3BBA7CAFD19
:100FF000C1BFCEAA20A3BA25640A00001FB50020F5
:1010000000900190029003906A460421172000F09E
:1010100027F81FBD1FB510490A7892099201921D49
:101020000A700E4901228A700021009101910291FB
:1010300003916946087003204871052088726A464A
:101040000421162000F00CF8FF202D3008F0DCF809
:1010500008F026FA1FBD0000A00A0020180000209A
:1010600070B586B00D460646144618216846FFF74F
:101070008FF8BB2069460870AA20002248708A7049
:10108000CE700A714D71062023780B54401C641CED
:101090001628F9DB00200B5C401C9A18C0B292B2F3
:1010A0001628F8D308468A75110AC17501463223FD
:1010B0001822024802F06AFD06B070BD300A002016
:1010C0001FB50D480178002915D14078012812D1AB
:1010D0000AA007F0A7FC002000900190029069464A
:1010E000302203900A54401C0828FBDB0A460821E2
:1010F0000120FFF7B5FF1FBD18000020B7A2CBCD20
:10110000C1ACBDD3D6B8C1EE0A00000010B50028AE
:101110000ED002280FD0012810D0032812D00428A6
:1011200013D0052814D0062801D108F02DFC10BDDD
:10113000FFF7C6FF10BDFFF761FF10BD0846FFF7C0
:1011400069FF10BDFFF744FE10BDFFF719FE10BD8B
:101150000846FFF721FE10BD10B5144C1248206060
:10116000E120000260600020A060E0602061A061DA
:101170000C206061204602F0B4FA002801D0FFF78D
:101180009DFC0A4802F0A0FB002801D0FFF796FC66
:1011900001220749054802F05FFC206881680122AE
:1011A0001143816010BD000000440040300A00205F
:1011B00003000020194810B500210246017060327A
:1011C00051714032164C1173217061706421401CC2
:1011D000FEF7DEFF11480A216630FEF7D9FF0F48FF
:1011E0003C217030FEF7D4FF0C485021AD30FEF7A3
:1011F000CFFF0A48FF214131FD30FEF7C9FF07212B
:10120000E01FFEF7C5FF19218901A01CFEF7C0FFF2
:101210000120214624398877C87710BD480B00206B
:101220008C0D0020012330B58002DB06C31800209E
:1012300004E08500EC1824684C51401C9042F8DB17
:1012400030BD0000F7B50446012184B000278002BC
:10125000C90616464518039700F00CFC72B60097B5
:101260000195002C08D00220029003A9684600F0E6
:1012700069FB002802D004E00120F5E70AA007F08E
:10128000D1FB62B6002408E00599A0000A58411974
:101290000023022000F0B0FB641CB442F4DB00F039
:1012A000A1FB07B0F0BD0000B2C1B3FDB3C9B9A640
:1012B0000A00000010B50C460BF0E8FB207010BDD2
:1012C00038B50C468030C1B268460F2501702846FB
:1012D0000BF01AFC002809D0694628460BF0F4FBF5
:1012E000002803D0684600782070012038BD000037
:1012F00070B50026354634460F4800F091FA322189
:101300000D4800F02DFA0C4800F01CF9800503D5BB
:10131000094800F019F986B2A819641C85B20A2C94
:10132000EADB0A212846FEF7DFFE0446214603A039
:1013300007F078FB204670BDB00A002056616C753E
:10134000655F53756D203D2025640A0070B5074C1C
:101350000D46012805D006A007F064FB0020A0760A
:1013600070BD07A007F05EFBA57670BDE407002006
:10137000CEB4C1ACC9CFC2B7D3C9C6F70A0000000A
:10138000B5B1C7B0D0C5BAC5C7BFB6C8CEAA2025AB
:10139000640A0000F8B50025044640340095227820
:1013A000012A39D00122227003689E68760767D42B
:1013B000384F4E68BE424DD09E6A0F78BA401643F1
:1013C0009E620123826B1B079A421FD0012A1DD007
:1013D000022A1BD0032A19D0042A17D0052A15D0B7
:1013E000062A13D0072A11D002688B68566976073F
:1013F000760FB3420AD05369DB08DB005361006803
:1014000042690B7A5B075B0F1A4342610A68102A34
:1014100004D0112A02D038E00220F8BD1E488368AB
:10142000102A07D001229205134383600868102810
:1014300003D02AE00122D205F6E7194817490068CF
:10144000FEF752FE0A21484300E0401E00900028AB
:10145000FBD11AE0986A0E78B2409043986209680E
:10146000102901D0112910D10B488268102904D00D
:10147000012189058A43826007E00121C905F9E756
:10148000416C202211434164012500202070284630
:10149000F8BD0000011000000027014040420F008D
:1014A0000C00002070B504003BD0606C02210843A2
:1014B00060642046FEF709FF00260546002832D06A
:1014C000012D2AD021684A689F2082434A60216802
:1014D00008602068C168184A1140C160206801692D
:1014E00089008908016120684169C908C900416112
:1014F0002068016A114A114001622068816AC90CA2
:10150000C90481620E48816803229205914381607B
:10151000204600F0D7F8A66466644034267028465A
:1015200070BD012070BD2046FEF7F8FE054601287B
:10153000F3D001206064C5E700023E8300F000F0B4
:1015400000270140406C70470068006C7047000045
:10155000F8B500250446002803D0606C002802D0AE
:1015600008E00120F8BD0020A06440210855204675
:1015700000F0C0F8606C1022C006002870DB206804
:10158000816849076CD4616C1301994302231943A4
:10159000616481688907890F012905D10168C9073C
:1015A0000FD1C16809040CD4C16818239943A368FA
:1015B0001943C1602068016963688900890819437B
:1015C00001612068C1683D4B1940C160A069E169B3
:1015D0008003C9030843216A4B031843636B012B43
:1015E00002D001231B0300E000231843E3681843E3
:1015F0002369022B09D000231843236B666A5B0022
:1016000018430123012E02D00AE00423F4E7002945
:1016100027D0616C202631436164A16C1943A16419
:10162000A16A0E46FF3EC23E02D0E66A314308433D
:101630002168CE680643CE600126A16B3607B14211
:1016400013D0012911D002290FD003290DD004296C
:101650000BD0052909D0062907D0072905D010E0AD
:1016600028E0012109040843DAE721684E69F608F9
:10167000F6004E6121684E69278F7F077F0F3E433A
:101680004E612168C9680E4E3140814207D1002069
:10169000A064606C80088000401C606408E0606C9E
:1016A0000221884310436064A06C1843A0640125A4
:1016B0002846F8BD606C10436064F8E71902FEFF2D
:1016C000E7FF3F8310B504460068084988420CD103
:1016D0000748816942159143816109200121C006B3
:1016E00000F0DCF9E06B00F00CF910BD00240140C3
:1016F0000010024010B586B0044614216846FEF77B
:1017000047FD1149206888421CD110488269411563
:101710000A43826182690A400592426909020A43CA
:10172000426140690840059001200090032001902B
:101730000020029009206946C00600F0B7FA04A014
:1017400007F070F906B010BD0024014000100240FF
:10175000414443B3F5CABCBBAFB3C9B9A60A000044
:10176000F8B504464069254640350E4608280BD09A
:101770002068C068C00709D0606C202108436064FD
:10178000002028700120F8BD082700E00C2700F099
:101790003DFB009011E0701C0FD0002E05D000F032
:1017A00035FB0099401AB04207D9606C0421084308
:1017B0006064002028700320F8BD2068006838426B
:1017C000E9D0606C01214902084360642068C16867
:1017D00009058A0F0C21002A1AD1226A002A17D182
:1017E0000268120714D5826853070122002B08DB18
:1017F00043688B434360606C1302984310436064FA
:1018000006E0606C202318436064A06C1043A06461
:10181000A069002801D1206801600020F8BD000007
:1018200070B50446216800208968490721D42546FF
:101830004035297801291CD001212970E16901294D
:1018400004D02046FEF79EFD002811D1616C0A4AA3
:101850001140FF220132114361640021A16429700B
:1018600022681C21116021688A6804231A438A6057
:1018700070BD022070BD0000FEF1FFFF70B505468F
:10188000044640352878012807D001262E702046CE
:10189000FEF71BFD002802D00CE0022070BD2046A0
:1018A000FEF73CFD002805D1616CFF220132914317
:1018B000314361640021297070BD70B50024014678
:1018C00020314A78022A03D004218163012416E0E2
:1018D000026813680E25AB431360026813685B0847
:1018E0005B0013600122056C1346AB40C56B6B6057
:1018F0004A7000220A70416B002900D088472046B8
:1019000070BD70B504001BD020680168490849000B
:1019100001602068002505602068456020688560BA
:101920002068C5602046FEF7ABFF216C012088408F
:10193000E16B4860A563203465702570002070BDA0
:10194000012070BDF8B5054623480F46017E0126EB
:1019500001290BD0012101762868204C012807D0ED
:101960002046FFF711F9002813D030E00220F8BD1F
:101970002046FFF709F9002829D1FFF7A1F82046F2
:10198000FFF702F9064616480169042291430161F6
:101990001DE00020C04338606C6812E02046FFF76D
:1019A000A1F80E48FFF7F0F806460D48026902213B
:1019B0008A430261002E01D03C6008E001208002D1
:1019C0002418A868810268680818A042E6D802486E
:1019D000002101763046F8BD1008002050C30000F9
:1019E0000020024003480169802211430161002068
:1019F0007047000000200240F0B51FB407461A48A7
:101A00000024017E15461E46012907D001210176DA
:101A10001648FFF7B9F8002803D020E0022005B0EF
:101A2000F0BD012F02D0022F00D00427220128464A
:101A30003146FEF783FB81B2019862001018FFF770
:101A400063F80A48FFF7A0F809490A6952085200EA
:101A50000A61002803D1641CE4B2BC42E6D3024907
:101A600000220A76DBE700001008002050C30000C7
:101A700000200240064900200A69120607D5054ADF
:101A80004A60054A4A600969090600D50120704785
:101A90000020024023016745AB89EFCDF0B500235C
:101AA00058E001229A4014460A4052D006685F006E
:101AB0000325BD40AE43AC460660DD08AD002D18E1
:101AC0002E6AAE465D07EF0E0F25BD40AE4375464C
:101AD0002E6286686546AE4386604568A5434560CC
:101AE000C4686546AC43C4609D081C4CAD002D190C
:101AF000AF689C07260F0F24B440A4463C4009273A
:101B0000FF06B84201D100270FE0154FB84201D1BE
:101B100001270AE0134FB84201D1022705E0124F16
:101B2000B84201D1032700E00527B740A74210D1F2
:101B3000AE686446A643AE600C4C256895432560AC
:101B4000656895436560A5689543A560E56895431C
:101B5000E5605B1C0A46DA40A3D1F0BD00000140FD
:101B60000004004800080048000C00480004014040
:101B7000F8B505460026012000030127334C0096E6
:101B800085420DD132A006F04DFF0520607220463F
:101B90004030C77520308671FE2006F0FBFE51E014
:101BA000012D06D0022D09D0202D0DD0102D25D0CD
:101BB00048E02AA006F036FF032003E02AA006F042
:101BC00031FF042060723DE02AA006F02BFF0220C6
:101BD0006072102006F0BEF90146684601701120BF
:101BE00006F0B8F9014668464170122006F0B2F9D5
:101BF00001466846817006F0C7F923E020A006F090
:101C000011FF234807706772104F603F796C012005
:101C1000884720480078002814D1207A042807D06B
:101C20000B2805D03D2803D0292801D02A2809D126
:101C300019A006F0F7FE0548002120308686BA6C10
:101C40000220904718484561F8BD0000A407002015
:101C5000C7CBBFAAD6D0B6CF0A000000CBA2BFA880
:101C6000D6D0B6CF0A000000CAD2C4DAD6D0B6CFDA
:101C70000A000000B4A5C3FED6D0B6CF0A0000000B
:101C8000CAD6D6B8B4A5B7A2D6D0B6CF0A0000003F
:101C9000020000201A000020B7A2CBCDD1E9D6A4C3
:101CA000D6B8C1EE0A00000000040140F8B50023D8
:101CB0008DE001249C40A44622407DD04C68022C3B
:101CC00001D0122C0CD1DC08A40027183C6A5D0757
:101CD000ED0E0F26AE40B4430E69AE4026433E6281
:101CE00005685E000324B4400F79A543BF07BF0F0A
:101CF000B7402F4307604D68012D05D0022D03D05A
:101D0000112D01D0122D0ED18568CF68A543B740A3
:101D10002F43876047686546AF430D79ED06ED0FA9
:101D20009D403D434560C568A5438C68B4402C4345
:101D3000C4604C68E40049D5284CA56901263543A8
:101D4000A561A4699D0834400094254CAD002F196D
:101D5000BC689D072E0F0F25B540AC430925ED0645
:101D6000A84201D100250FE01E4DA84201D1012556
:101D70000AE01D4DA84201D1022505E01B4DA842F5
:101D800001D1032500E00525B5402543BD60184C71
:101D900025684E689543F60300D5154325606568B0
:101DA0004E689543B60300D515436560A5684E6837
:101DB0009543F60202D500E008E01543A560E5680A
:101DC0004E689543B60200D51543E5605B1C0A6872
:101DD0001446DC4000D06CE7F8BD00000010024063
:101DE000000001400004004800080048000C0048C2
:101DF000000401400069084000D001207047002A1B
:101E000001D081617047816270470000014800681D
:101E1000704700000800002070B502464032537839
:101E2000202B1CD11378012B19D0012313702424EB
:101E30005470046825689D432560046825681E0366
:101E4000B5432560046825680D4325600068016876
:101E500019430160202050700020107070BD0220D6
:101E600070BD70B5024640325378202B1BD11378D9
:101E7000012B18D0012414702423537003681D68AB
:101E8000A5431D6005682B680F263602B34309027F
:101E900019432960006801682143016020205070C7
:101EA0000020107070BD022070BD70B5040014D009
:101EB00024212046403005464170206801684908C9
:101EC00049000160204600F027FA00216164697032
:101ED0002163A9702970084670BD012070BD000003
:101EE00070B5040006D025464035687800260028E5
:101EF00002D005E0012070BD2E70204600F00EFAE1
:101F000024206870206801684908490001600F2199
:101F10006068090688432168086121688A68012091
:101F2000C00382438A60E1680129A16808D02122A8
:101F30009202114322689160E168022902D005E013
:101F40000143F7E701212268C902516021684A680C
:101F50000F4B1A434A602168CA688243CA606169AC
:101F600020690843A169090208432168C860216A01
:101F7000E069084321680860206801680122114374
:101F800001606664202068702663AE70002070BD1A
:101F900000800002FFB5054604464035687881B0F0
:101FA00020287ED1287801287BD001202870FFF7D7
:101FB0002DFF0746012200901923D103204601F08E
:101FC000F3FE00283FD1222068701020A870002660
:101FD000666403986062049860856663618D092079
:101FE0008002FF2903D9FF222285009034E0618D11
:101FF0002185009036E02046029901F0C3FE36E0CC
:1020000001F0F6FE002803D0606C042847D01AE0E7
:102010002068416A606A421C62620170208D401E25
:1020200080B22085618D491E618500281FD1608D99
:1020300000281CD000970022802120460A9B01F036
:10204000B3FE002802D0032005B0F0BD608DFF284C
:1020500005D9FF222285009601231B06CBE7608D60
:1020600020850096208D0123C2B25B06C3E7608DF8
:102070000A9900283A462046C2D101F0F5FE002810
:10208000C2D121682020C86121684A68064B1A40E5
:102090004A606870AE702E700020D5E701E0012024
:1020A000D2E70220D0E7000000E800FEFFB50546B9
:1020B00004464035687881B020287ED128780128F0
:1020C0007BD001202870FFF7A1FE07460122009077
:1020D0001923D103204601F067FE00283FD12120BB
:1020E00068701020A87000266664039860620498E7
:1020F00060856663618D01204003FF2903D9FF22BB
:102100002285009034E0618D2185009036E02046E4
:10211000029901F037FE36E001F0CDFE002803D031
:10212000606C042847D01AE0606A411C6162017843
:1021300020688162608D401E6085208D401E0004F5
:10214000000C20851FD1608D00281CD00097002234
:10215000802120460A9B01F027FE002802D00320A0
:1021600005B0F0BD608DFF2805D9FF2222850096BD
:1021700001231B06CBE7608D20850096208D01236F
:10218000C2B25B06C3E7608D0A9900283A46204632
:10219000C2D101F069FE0028C2D121682020C861A7
:1021A00021684A68064B1A404A606870AE702E700B
:1021B0000020D5E701E00120D2E70220D0E70000AF
:1021C00000E800FEFFB5054604464035687883B058
:1021D000202876D10C98002874D00D98002871D052
:1021E000287801286DD001202870FFF70FFE0746E0
:1021F000012200901923D103204601F0D5FD0028CB
:1022000053D1212068704020A870002666640C9885
:1022100060620D98608566630E980090019704A92E
:102220000EC9204601F078FD002804D0606C2E70A5
:1022300004286AD039E0608DFF2805D9FF22228565
:1022400001231B06009606E0608D20850096208DF8
:102250000123C2B25B062046049901F093FD3A4681
:1022600020460E9901F027FE002803D0606C042858
:102270004BD01AE0606A411C616221680078886274
:10228000608D401E6085208D401E0004000C20855E
:1022900024D1608D002821D0009700228021204683
:1022A0000E9B01F081FD002802D0032007B0F0BD95
:1022B000608DFF2807D9FF22228501231B06009687
:1022C00008E024E021E0608D20850096208D012328
:1022D000C2B25B062046049901F054FD608D0028CF
:1022E000BDD13A4620460E9901F0BEFD0028BDD171
:1022F00020682021C16120684268064B1A40426074
:102300006970AE702E700020D0E70120CEE7022069
:10231000CCE7000000E800FE7047000010B586B072
:10232000044614216846FDF733FF134920688842AC
:1023300020D1124C6169012080040143616161690F
:1023400001400591C020009012200121019003203E
:1023500002910491039069460948FFF7A7FCE169DF
:10236000012040050143E161E169014005A00591BB
:1023700006F058FB06B010BD0054004000100240AB
:1023800000040048494943B3F5CABCBBAFB3C9B95F
:10239000A60A000002480168491C0160704700005D
:1023A0000800002010B506480168102211430160A2
:1023B000002000F007F800F017F8002010BD000022
:1023C0000020024010B5044600F066F97D21C900E6
:1023D000FDF78AFE00F0F6FE00222146501E00F0B6
:1023E0002BF8002010BD000008B5084881690122C3
:1023F00011438161816911400091C26901040A435E
:10240000C261C0690840009008BD00000010024091
:10241000C106C90E012088400149086070470000CC
:1024200080E100E0C106C90E012088400149086032
:102430007047000000E100E010B502F0F9FA10BDAD
:102440000248016882151143016070470070004026
:102450000A4B1A689208920002431A6008480369FE
:10246000042213430361012906D040BF20BF20BFCF
:10247000016991430161704730BFF9E70070004086
:1024800000ED00E0F8B505460068354CC00352D5B4
:10249000E0690026C00007D4E16920040143E1613E
:1024A000E1690140012600912E480168C90510D458
:1024B0000168821511430160FFF7A8FC074604E09C
:1024C000FFF7A4FCC01B642824D826480068C00578
:1024D000F6D5206A03273F02384020D0696839408A
:1024E00081421CD0206A226AB843012109040A43B0
:1024F0002262226A8A4322622062C0070FD0FFF75D
:1025000085FC009008E0FFF781FC0099411A16480D
:10251000814201D90320F8BD206A8007F3D5206AE3
:102520006968B84308432062002E04D0E1690120A5
:1025300000078143E1612878C00705D0206BA968B6
:1025400080088000084320632878800605D5206B2A
:1025500010218843E968084320630020F8BD00008B
:10256000001002400070004088130000F8B50546D6
:1025700044480E460068C007C00FB0420AD2414826
:10258000016849084900314301600068C007C00F75
:10259000B0425CD128783C4C800705D56068F021BA
:1025A0008843A968084360602878C0073FD06868FE
:1025B000012813D02168022813D08907002946DAA0
:1025C00061688908890001436160FFF71FFC696841
:1025D000074601290DD0022917D024E0216889037C
:1025E000ECE78901EAE7FFF711FCC11B27488142AC
:1025F00017D860680007800F0128F4D117E0FFF7B3
:1026000005FCC11B214881420BD860680007800F80
:102610000228F4D10BE0FFF7F9FBC11B1B488142F4
:1026200001D90320F8BD60680007800FF3D1154879
:102630000168C907C90FB1420BD9016849084900AF
:10264000314301600068C007C00FB04201D00120D3
:10265000F8BD2878400706D560680721090288433D
:10266000E9680843606000F02DF86168084A0906CF
:10267000090F515CC840074908600020FFF7A2FE1F
:102680000020F8BD00200240001002408813000026
:102690004ACD00080C000020014800687047000087
:1026A0000C0000200448054900684968044A4905AF
:1026B000490F515CC84070470C00002000100240D8
:1026C0005ACD000810B512A30FCB88B06C460FC4CA
:1026D00013A30FCB0FC416494A680C2013460340BE
:1026E0001448042B0FD0082B0DD193021B0F6C46FE
:1026F000E45CC96A04AB0907090F595CD20304D52D
:10270000FDF7F2FC604308B010BD0B486043FAE7E8
:1027100002030405060708090A0B0C0D0E0F101022
:102720000102030405060708090A0B0C0D0E0F1021
:102730000010024000127A0000093D00FEB5044678
:102740000078D04DC00747D068680007800F012887
:1027500007D068680007800F022809D16868C003A5
:1027600006D52868800337D5606800287ED033E01E
:10277000012062680004012A11D08100002A01D0E2
:10278000052A10D02A6882432A6028688843286076
:102790006068002814D0FFF739FB06460CE0296872
:1027A00001432960F4E72A680A432A60F7E7FFF744
:1027B0002DFB801B64286FD828688003F7D50BE0B9
:1027C000FFF724FB064604E0FFF720FB801B64288C
:1027D000F1D828688003F7D42078012680070028E4
:1027E0003BDA68680007800F07D068680007800F31
:1027F000022809D16868C00306D42868800715D567
:10280000E068012832D111E0E0680028286815D07E
:1028100030432860FFF7FAFA074604E0FFF7F6FABC
:10282000C01B0228C7D828688007F7D52868F82178
:1028300088432169C900084328600EE04008400031
:102840002860FFF7E3FA074604E0FFF7DFFAC01B52
:102850000228B0D828688007F7D42078000724D54C
:10286000E0690028686A10D0304300E008E168623F
:10287000FFF7CCFA074604E0FFF7C8FAC01B0228AE
:1028800099D8686A8007F7D50FE040084000686271
:10289000FFF7BCFA074605E09DE0FFF7B7FAC01B5B
:1028A000022888D8686A8007F7D420780427400770
:1028B000002860DA00200190E869C00008D4E969C6
:1028C000B8060143E961E9690140012000910190E6
:1028D0006D480168C90511D4016882151143016072
:1028E000FFF794FA009005E0FFF790FA0099401A7C
:1028F000642870D864480068C005F5D5A068012830
:102900000AD0002801D0052810D0286A40084000CD
:102910002862286AB84301E0286A30432862A06828
:10292000002812D0FFF772FA00900AE0286A3843B4
:102930002862F1E7FFF76AFA0099411A5348814289
:1029400049D8286A8007F5D50DE0FFF75FFA0090B7
:1029500006E0FFF75BFA0099411A4C4881423AD8E9
:10296000286A8007F5D40198002804D0E96901207D
:1029700000078143E9612078C00635D560690128E8
:102980000CD0401D686B23D038436863686B4008E7
:1029900040006863FFF73AFA064622E0686B384366
:1029A0006863686B30436863FFF730FA064604E0FB
:1029B000FFF72CFA801B02285BD8686B8007F7D5DD
:1029C000686BF8218843A169C900084368630BE07C
:1029D000B8436863F4E74CE0FFF718FA801B02285D
:1029E00047D8686B8007F7D4206A002846D069680A
:1029F0000907890F022943D00126360602282868D4
:102A000005D0B0432860FFF701FA044633E0B04335
:102A10002860FFF7FBF9074604E0FFF7F7F9C01B52
:102A2000022826D828688001F7D4E86AE16A0009FC
:102A300000010843E862616AA06A084369683D22B0
:102A40001204914308436860286830432860FFF708
:102A5000DDF9044604E0FFF7D9F9001B022808D885
:102A600028688001F7D509E0FFF7D0F9001B02289C
:102A700001D90320FEBD28688001F5D40020FEBDE9
:102A80000120FEBD001002400070004088130000CD
:102A900010B500680B464068C021C94301400002E0
:102AA000000ECC04D870E40E5C708C06A40E0904F1
:102AB000490F9C701970002A0AD104F097FDD87054
:102AC000587804F093FD5870987804F08FFD987052
:102AD000002010BD30B50B460168896A5960016855
:102AE00009694904490C9960006804680F48214647
:102AF000014088024D04800E18706D0E49065D700D
:102B0000490E99706102490E40242140D970002A73
:102B10000AD104F06BFD1870587804F067FD587006
:102B2000987804F063FD9870002030BD7F7F7F00AF
:102B300070B5040003D0607F002802D006E00120B9
:102B400070BD00202077204600F04CF8022060770E
:102B50002168CA204862216853204862204604F058
:102B600058FDFF250426002824D1206881681C4ACE
:102B70001140816021688868626863691043226936
:102B80001A43104388602168E06808612068016981
:102B900022891204114301612068C1688022914397
:102BA000C16020688068800608D4204600F00CF9D7
:102BB000002803D0206845626677C0E72068016C72
:102BC00001229204914301642068016CA2691143BF
:102BD00001642068456201206077002070BD00001C
:102BE000BFFF8FFF10B500680649884208D106482C
:102BF000016A0122D2031143016204A005F012FF11
:102C000010BD00000028004000100240525443B3A1
:102C1000F5CABCBBAFB3C9B9A60A0000F8B50446F3
:102C2000007F0B46012815D0012020770220607715
:102C30005878002A10D004F0D9FC987804F0D6FC1B
:102C4000D8789D7800040543587819780002490324
:102C5000084316E00220F8BDC10603D5EF21084065
:102C60000A305870D87804F0C9FC0504587804F08C
:102C7000C5FC00020543987804F0C0FC05431878B1
:102C8000400305432168CA204862216853204862F6
:102C9000204604F0BEFC0026FF27002811D1104872
:102CA0000540206845602068C16880229143C1606A
:102CB0002068806880060BD4204600F085F8002844
:102CC00006D0206847620420607726770120F8BD8F
:102CD000206847620120607726770020F8BD000059
:102CE0003FFFFF00F8B50446007F0D4601280ED0D7
:102CF0000120207702206077206800278068002A62
:102D000007D0400618D5287804F070FC15E00220A2
:102D1000F8BD400600D4EF70287804F06FFC06047C
:102D2000687804F06BFC00020643A87804F066FCA7
:102D30000643E878000409E0EF702878AE780004D4
:102D400006436878E97800020904084306432168CD
:102D5000CA204862216853204862204604F059FC8A
:102D600000281ED117480640206806602068816848
:102D700001229204914381602969E868084321682F
:102D80008A68104388602068C16880229143C160CE
:102D90002068806880060CD4204600F015F80028D2
:102DA00007D02168FF204862042060772777012040
:102DB000F8BD2168FF204862012060772777002056
:102DC000F8BD00007F7F7F0070B504460068C168D1
:102DD000A0229143C160FFF719F87D260546F60051
:102DE00006E0FFF713F8401BB04201D9032070BD85
:102DF0002068C0688006F4D5002070BDF8B50400D6
:102E000007D0002625464035A662687F002802D0FC
:102E100005E00120F8BD2E77204600F04BF8022394
:102E20006B77206801684022914301600721E068C8
:102E30000902884201D9002201E0012212030F2772
:102E40003F02B84202D0884200D0A662276B002F12
:102E500005D1884201D9236301E001202063A168E4
:102E60006068636908432169194308430123A16924
:102E70005B0219400843E1690843216A0843A16ADB
:102E8000084321680860616B606AA36908431B0CF2
:102E90000427E1683B401943084321681043486018
:102EA0002068C1697A029143C16126660120687772
:102EB0000020F8BD70B50068234986B0884240D133
:102EC00022484269012149040A43426142690A4099
:102ED0000592826981140A4382618069092608404B
:102EE00005902020009002200190029003200024F1
:102EF000F6060390694604943046FEF7D7FE40205C
:102F00000090694604943046FEF7D0FE8020009081
:102F1000694604943046FEF7C9FE01250120ED0202
:102F200001906946009504943046FEF7BFFE0122E9
:102F300029463046FEF763FFFDF702FB04A005F0CB
:102F400071FD06B070BD000000300140001002406D
:102F50006E66632D73706931B3F5CABCBBAFB3C97C
:102F6000B9A60A00FFB5044683B0012025464035C6
:102F70000090287F00270E4601280FD001202877D7
:102F8000FEF744FF0190687F616801280DD0CA1FD9
:102F9000FD3A08D1A168002905D102E0022007B05E
:102FA000F0BD042801D00227FAE0002E7CD005985D
:102FB0000028FBD006980028F8D0687F042801D0AC
:102FC0000520687700202066059921640699E9802C
:102FD0000699A980A6630699E1870699A187E0640E
:102FE00020650723E1681B02994202D8E88801287E
:102FF00006D920684268012109038A43426005E03E
:103000002068416801221203114341602068016871
:10301000490603D40168402211430160E1686068F9
:10302000994242D9002802D0E08F012835D1216889
:103030003088C860E08F401EE087B61C2DE0009805
:1030400000280ED0E08F00280BD020688168890707
:1030500007D53188C160E08F401EE0870020B61C94
:103060000090E88800280ED020688168C9070AD03F
:10307000C068059908800598801C0590E888401E66
:10308000E880012000900C98401C06D0FEF7BEFEA0
:103090000199411A0C9881426DD2E08F0028CED15F
:1030A000E8880028CBD16EE079E0002802D0E08FDC
:1030B000012862D1E08F012807D921683088C860D3
:1030C000E08F801EE087B61C57E0216830780873D7
:1030D000E08F401EE087761C4FE00098002818D053
:1030E000E08F002815D020688168890711D5E18F0D
:1030F000012906D93188C160E08F801EE087B61CA7
:1031000005E031780173E08F401EE087761C0020D7
:103110000090E888002824D020688168C90720D062
:10312000E988012912D9C068059908800598801C92
:103130000590E888801EE880E88801280FD820687C
:103140004168012212031143416008E0017B0598A8
:1031500001700598401C0590E888401EE880012019
:1031600000900C98401C08D0FEF750FE0199401AC0
:103170000C99884201D3032712E0E08F0028ACD1DC
:10318000E8880028A9D12046019A0C9904F015FB83
:10319000002801D020202066206E002800D00127C2
:1031A00001206877002028773846F8E60422044991
:1031B0000428086902D09043086170471043FBE778
:1031C00000E000E0094910B5401E884201D9012005
:1031D00010BD074C60610321081F01F029FC00208D
:1031E000A06107202061002010BD0000FFFFFF004C
:1031F00000E000E07047704770B502462032137F50
:10320000012B1BD0012313770224547704686568CF
:103210007026B5436560046865680E68354365606F
:103220000468A5688026B543A5600068846849687D
:103230000C43846053770020107770BD022070BD6E
:1032400010B5022104462034617701680A6A084BF0
:103250001A4207D10A6A9B101A4203D10A6852081F
:1032600052000A6000F020F800206077207710BD3F
:103270001111000070B5040005D025462035687F87
:10328000002802D006E0012070BD002028772046EB
:1032900000F01CF802206877211D206804F0EAFC89
:1032A00001206877002070BD10B50068054988428C
:1032B00007D10548C16902229143C1611020FFF77F
:1032C000A7F810BD000400400010024038B50446C5
:1032D00000680D49884215D10C49CA690220024391
:1032E000CA61C96903220140009101211020FFF742
:1032F000A3F81020FFF796F8204600F015F804A078
:1033000005F090FB38BD00000004004000100240B2
:1033100054494D33B6A8CAB1C6F7B3F5CABCBBAF62
:10332000B3C9B9A60A0000000268D36801210B43A3
:10333000D360006802680A43026000207047000002
:103340000168CA6852085200CA600068016A064AE9
:10335000114207D1016A9210114203D10168490854
:10336000490001600020704711110000F8B50546C2
:1033700004462035287F012817D001272F77022007
:103380006877226890687726FF23B0431B02984332
:1033900090600868502837D00EDC202857D006DC13
:1033A00000284ED0102840D14EE00220F8BD302831
:1033B00050D0402839D13CE060282DD0702817D05B
:1033C00001221203801A0ED090422ED1CB684A6897
:1033D0008968206804F092FC2068816801229203C9
:1033E0001143816021E020688168C908C900F8E7BD
:1033F000CB684A688968206804F080FC2168886886
:10340000B0433043886010E0CA684968206804F01F
:1034100088FC5021206806E0CA684968206804F0EA
:1034200091FC6021206804F074FC6F7700202877FD
:10343000F8BDCA684968206804F073FC4021206820
:10344000F1E700212068EEE710212068EBE720215A
:103450002068E8E730212068E5E7704770B504464A
:10346000006801690025C9438907002915DBC16887
:10347000C943890711D4E91E016101202077206822
:1034800080698007204602D0FFF7E7FF04E000F0E4
:1034900096F8204600F094F8257720680169C94322
:1034A000490717D4C168C943490713D40421C94344
:1034B000016102202077206880698005800F204606
:1034C00002D0FFF7CAFF04E000F079F8204600F0D0
:1034D00077F8257720680169C943090716D4C168C0
:1034E000C943090712D40821C94301610420207788
:1034F0002068C0698007204602D0FFF7AEFF04E0D5
:1035000000F05DF8204600F05BF82577206801693F
:10351000C943C90617D4C168C943C90613D41021C9
:10352000C9430161082020772068C0698005800FA9
:10353000204602D0FFF791FF04E000F040F820465B
:1035400000F03EF8257720680169C943C90708D112
:10355000C168C943C90704D1891E0161204600F032
:1035600031F820680169C943090609D4C168C94313
:10357000090605D48021C94301612046FFF73AFEC0
:1035800020680169C943490609D4C168C94349068D
:1035900005D44021C9430161204600F0A1F820680C
:1035A0000169C943890609D4C168C943890605D49C
:1035B0002021C94301612046FFF71DFE70BD704701
:1035C0007047000070B500682549884239D1254C04
:1035D0000025607E2646403E002809D0401EC1B22C
:1035E000617621A005F01EFA607E002800D13572B8
:1035F000207F002811D0401EC1B2217724A005F001
:1036000011FAA07E052804D3217F0022092008F0AA
:10361000D5FD207F002800D13572A07D002805D07F
:1036200002212448FEF7E6FB00280BD0A5750D48C3
:10363000214A2038818E914200D98586818E491C8D
:10364000818670BD0748A038C16C10208847A07DD6
:10365000401EC1B2A17519A005F0E4F9E7E700002A
:1036600000040040E40700204C75736572732E411E
:10367000504D446174612E746573745F6572726F2E
:10368000725F74696D65203D2025640A00000000AA
:103690004C75736572732E41504D446174612E41B7
:1036A00050505F4F70656E5F54696D65203D2025F9
:1036B000640A00000004004860EA00004C7573656D
:1036C00072732E41504D446174612E496E646F6F68
:1036D000725F74696D65203D2025640A000000005A
:1036E000704770B5040019D024212046603006468A
:1036F000417220680168490849000160206800257E
:1037000005602068456020688560204600F012F959
:10371000E5667572B5723572002070BD012070BD0E
:10372000F8B5044600681449254608262027603568
:1037300088420CD1C069C043000705D40FA005F032
:1037400071F9206806626F72012212490FE0124976
:1037500088420FD1C069C043000705D40FA005F00F
:1037600061F9206806626F720A490122491E2046EB
:1037700000F072F9F8BD0000003801407561727404
:1037800031206572726F7263616C6C6261636B325F
:1037900000000000040000200044004075617274C5
:1037A00032206572726F7263616C6C6261636B323E
:1037B00000000000F8B503680446D96918680D07D1
:1037C0002D0F07D18A0605D5820603D5204604F0C1
:1037D000BDFEF8BD9A68002D64D0D507ED0FFF2619
:1037E000213606402E435DD0CE0706D0C60504D54F
:1037F00001261E62E36E3343E3668F07022304262D
:10380000002F06DAD70704D027683B62E76E3743FC
:10381000E7664F0706D5D20704D022681662E26E2B
:103820001A43E2660A0709D5202202402A4305D03E
:10383000236808221A62E36E1343E366E26E002AED
:10384000C7D0890604D5800602D5204604F07EFE46
:10385000E06E000703D42068806840061CD520462F
:1038600004F058FE20688168490611D5816840221D
:1038700091438160606E00280AD012494163606EF6
:10388000FEF71BF80028A4D0606E416B8847F8BD96
:103890002046FFF745FFF8BD2046FFF741FF002017
:1038A000E066F8BD0A0605D5020603D5204604F0F9
:1038B00023FFF8BD4906FCD54006FAD5204604F0A2
:1038C00038FEF8BD0185000870B5040005D0254616
:1038D0006035687A002802D006E0012070BD002023
:1038E0002872204600F04EF8242068722068016893
:1038F000490849000160204604F066FE0128EDD029
:10390000606A002802D0204604F08CFD20684168DF
:103910000122D202914341602068816808229143CC
:10392000816020680168012211430160204604F093
:10393000DEFD70BD10B502680F4B09200F49C006AF
:103940009A420AD18A6901239B039A438A6103211F
:103950004902FEF7A3F81B200BE0094B9A420AD15B
:10396000CA6901235B049A43CA610C21FEF796F8E9
:103970001C20FEF74DFD10BD003801400010024034
:1039800000440040F0B587B0044614216846FCF7B7
:10399000FFFB294F2668012109200024274A4904FA
:1039A00002250123C006BE4224D19769CE103743B9
:1039B000976197693740059756690E43566152697A
:1039C00001950A40032149020592009103210391C8
:1039D000029404936946FEF769F9012211461B20FF
:1039E000FEF72AFD1B20FEF71DFD15A005F01AF8B5
:1039F00007B0F0BD174FBE42FAD1D6690E43D6616B
:103A0000D6690E40059656690E4356615269029377
:103A10000A400C2105920091019503940493694694
:103A2000FEF744F9022201211C20FEF705FD1C20AF
:103A3000FEF7F8FCDCE7000000380140001002400F
:103A4000B4AEBFDA31B3F5CABCBBAFB3C9B9A60ACD
:103A5000000000000044004070B5034660339C7ACB
:103A6000202C39D100290BD0002A09D001258468E7
:103A70002D03AC4206D10669002E03D1CE0701D03A
:103A8000012070BD1E7A012E26D001261E724165CE
:103A9000014640310A834A83FF22AC4204D10469C3
:103AA000002C07D10D4A05E0002C04D10469002C3C
:103AB00000D07F228A830021C16622229A72197265
:103AC00001688A6832438A6000680168FF222132F7
:103AD00011430160002070BD022070BDFF01000095
:103AE00070B5054600681D491D4C1E4E884216D112
:103AF0000122B11C2846FFF7AFFF00280CD01AA006
:103B000004F090FF606B8047E16B02208847012240
:103B1000B11C2846FFF7A0FFB07809F015F8164948
:103B20002868884218D10F490122491C2846FFF70E
:103B300093FF00280DD011A004F074FFA068804707
:103B4000E16B0220884707490122491C2846FFF7FC
:103B500083FF7078FDF756F970BD00000038014012
:103B60004407002002000020B4AEBFDA31BDD3CA42
:103B7000D5CAA7B0DC0A000000440040CAFDBEDD83
:103B8000BDD3CAD5CAA7B0DC0A000000FFB50646FF
:103B900004466036707A83B00D46202858D1002D37
:103BA0000CD00598002809D00120A16800038142AB
:103BB00007D12069002804D1E80702D0012007B00E
:103BC000F0BD307A012843D0012030720020E06639
:103BD00021207072FEF71AF90190274640370598A8
:103BE00038820598788218E0788A401E7882069894
:103BF0000090002280212046019B04F0B0FD0028A7
:103C000018D10120A1680003814202D12069002857
:103C100012D02168287808856D1C788A0028E3D1A5
:103C200006980090002240212046019B04F097FD59
:103C3000002808D00320C2E728882168C005C00DED
:103C40000885AD1CE9E72020707200203072B6E7CD
:103C50000220B4E77047000002A004F0E3FE00F089
:103C600009FF0000486172644661756C745F4861C9
:103C70006E646C6572204552524F52210A0000005A
:103C800001688A69D243920701D400228A620068DF
:103C90008169C943C90703D0816901221143816148
:103CA00070470000F7B5044600680E468069C043BF
:103CB000C0062CD420272546403520688069C043A3
:103CC00080060FD5701CF8D0002E05D0FEF79EF8A8
:103CD0000299401AB042F0D96F700020A870287085
:103CE0000320FEBD21681020C8612068C7612046FE
:103CF000FFF7C6FF20684168064A11404160042072
:103D000060646F700020A87028700120FEBD002044
:103D1000FEBD000000E800FEF8B50446012016468E
:103D200040031D46DAB2C3020090079F204600F010
:103D300029F83A462046069900F0BDF8002803D03D
:103D4000606C04281BD018E02846F5B2012809D081
:103D50002168300A88623A462046069900F0ABF89E
:103D60000028EDD12068856200970022802120463E
:103D7000069B00F019F8002800D00320F8BD0120B0
:103D8000F8BD000070B50568049C68688905890D58
:103D90001204044E1143194330402143014369602A
:103DA00070BD0000009800FCF8B51C4617460E4692
:103DB000054611E0601C0FD0002C05D0FEF726F858
:103DC0000699401AA04207D920204035687000208B
:103DD000A87028700320F8BD2868816930468843A0
:103DE00004D00020B842E5D00020F8BD0120F9E75A
:103DF000F7B5002720260546044640352AE0204630
:103E0000029A0199FFF74EFF002801D00120FEBD64
:103E100020688069C04380060BD42068C661206892
:103E20004168104A1140416067646E70AF702F7036
:103E3000ECE70198002806D0FDF7E8FF0299411A47
:103E40000198814206D9606C304360646E702F70B7
:103E50000320FEBD20688069C0434007CFD4002006
:103E6000FEBD000000E800FE70B516460D46044693
:103E70001AE0324629462046FFF714FF002801D0F9
:103E8000012070BD002D04D0FDF7C0FF801BA842AB
:103E90000AD9616C202001436164403460700020C5
:103EA000A0702070032070BD20688069C043800628
:103EB000DFD4002070BD70B516460D4604461CE0E8
:103EC000324629462046FFF7EDFE002801D00120AA
:103ED00070BD681C11D0002D04D0FDF797FF801B2A
:103EE000A8420AD9616C20200143616440346070AB
:103EF0000020A0702070032070BD20688069C0433E
:103F00008007DDD4002070BD00B50F4887B042693E
:103F1000012189040A43426140690840059002205A
:103F20000090012002900948019069460848FDF779
:103F3000BDFE052202211046FEF77EFA0520FEF79F
:103F400071FA07B000BD000000100240000021100F
:103F50000004004810B51D4C1B48A0601C482060A0
:103F60001C4860601C48E0601C4820611C4860617F
:103F70001C48A0611C48E0611C4820621C4860622B
:103F80001C48A0621C48E0621C4820631C48606317
:103F9000FDF7E2F82068804760688047E068804766
:103FA0002069804760698047A0698047E069804751
:103FB000206A8047606A8047E06A8047206B8047BC
:103FC000606B804710BD00005911000844070020B5
:103FD000C5910008054000089D0E0008290E000844
:103FE0001D890008074B0008D9460008454900080C
:103FF0006D7E0008B5110008CD470008A5480008EF
:104000008188000800B50B4887B042690121890505
:104010000A434261406908400590C0200090012099
:10402000019002900320039069460348FDF73EFE8D
:1040300007B000BD001002400014004810B5064B48
:10404000012807D0002804D10022C0211846FDF71E
:10405000D6FE10BD0122F8E70014004802460020F9
:10406000014604E04000401C491CC0B2C9B2914264
:10407000F8D37047F0B5384887B042690121490448
:104080000A43426142690A400592426949000A4373
:10409000426142690A400592426949000A4342610D
:1040A00042690A4005924269C9000A434261406977
:1040B0000927084005902948032602250024FF0609
:1040C000009069460196029503943846FDF7EEFD8F
:1040D0002348009069460196029503942148FDF714
:1040E000E5FD072040030090694601960295039480
:1040F0001D48FDF7DBFDC32000906946019602953F
:1041000003941A48FDF7D2FD1020009001946946EF
:1041100002943846FDF7CAFD202001266A4651C2A6
:1041200069461048FDF7C2FDE8026A4651C2694679
:104130003846FDF7BBFD009669460A480296019491
:10414000FDF7B4FD69460748029600950194FDF716
:10415000ADFD07B0F0BD000000100240EF9F000071
:104160001CFD00000004004800080048001400483E
:10417000F8B52E4C0A20607300262D4F20180090B1
:104180002B48617BC01D405C00F0D7F90025284812
:10419000A573C01F795D405D002200F0A0F9009872
:1041A00000F0CAF8A07AE17B884220D9217C8842BD
:1041B0001DD2A1798A08831A002B18DD82188A4241
:1041C00015D2C1B21939C9B23C38E172C0B22073FC
:1041D00000F0FAF917480078002806D0009800F09F
:1041E000ABF8A17A14A004F01DFC0120F8BD6D1CF1
:1041F000EDB2072DCBD3A279C5B25308D31A21460D
:10420000AB4204DA4B7B0B2B0DD05B1C4B7392083B
:10421000904204D2487B002805D0401E6073761C73
:10422000F6B20C2EACD30020F8BD0000181500200B
:1042300089EE00082707002025640D0A0000000011
:10424000F8B500F0FEF8134D04240A27E819009091
:104250006C722146032000F0A4F90F486F73807A36
:1042600000F06BF901220F21072000F038F90098C7
:1042700000F062F8A87A002805D0641CE4B27F2C14
:10428000E6D33046F8BD687A002801D00126F8E769
:104290000026F6E71815002090EE00080348417A42
:1042A0004174417B8174817BC17470471815002073
:1042B00010B500F0B1F800F0A3F9002000F0CCF840
:1042C00000F0BFF8FFF7BCFF002806D0FFF750FF53
:1042D000012802D000F002F8002010BD0348417C04
:1042E0004172817C4173C17C817370471815002035
:1042F00010B5FCF78DF80446012805D0FCF784F8CA
:104300000446012802D004E003A000E006A004F067
:1043100089FB204610BD00004943BFA8CAC742BF61
:10432000A8C0E0D0CD0A00004943BFA8CAC741BF1A
:10433000A8C0E0D0CD0A000070B5054601211C20C0
:1043400003F055FB0421012003F051FB242101203F
:1043500003F04DFB042000F079F90446002201210E
:104360001C2000F0D7FA0421012003F040FB28466E
:1043700000F016F800F065F8204670BD10B5014653
:104380001220FCF79DFF0548017AC90702D0C01D25
:1043900000F006F800F055F810BD000018150020D8
:1043A00038B5044669460D20FCF78AFF6846007858
:1043B0006946800120700C20FCF782FF6846007877
:1043C00021788006800E08182070012038BD00007A
:1043D00010B50F4C207AC00601D5FFF769FFA07B0E
:1043E0000C490C4A095CD21F105C002200F077F8DF
:1043F000617A032000F0D5F80649607BC91D085C8E
:1044000000F09BF800F0ACF80020207210BD000016
:104410001815002089EE000810B500F0A1F8212140
:10442000012003F0E4FA0821012003F0E0FA002162
:10443000032003F0DCFA01210B2003F0D8FA01205D
:1044400010BD10B50221012003F0D1FA2221012074
:1044500003F0CDFA012010BD10B5012815D00021C0
:10446000132003F0C4FA0021142003F0C0FA002145
:10447000152003F0BCFA0021162003F0B8FA8021C1
:10448000332003F0AFFA012010BD01228021392032
:1044900000F040FA002202213C2000F03BFA00220A
:1044A00007213D2000F036FA002203213E2000F0D3
:1044B00031FA0021382003F095FA0121132003F08E
:1044C00096FA0221142003F092FA0021152003F03D
:1044D0008EFA1821162003F08AFA8621D0E7F8B563
:1044E0000C460546164669463720FCF7E3FE68464B
:1044F0000078360188280DD1012C00D90124E40769
:10450000E40F6D07E0006D0F30184019C1B20220B2
:1045100003F06DFA6846007889280CD16807400FCF
:1045200030182407C1B2240F022003F060FA2101E1
:10453000272003F057FA0120F8BDC10610B5C90EB7
:10454000042003F054FA012010BD10B5012805D055
:104550001021012003F04BFA012010BD3021F8E7B3
:1045600010B58021022003F03DFA8021032003F0E2
:1045700039FA10BD10B5012809D00120FCF740FB25
:104580000020FFF7E2FF0520FDF742FF10BD0120EC
:10459000FFF7DBFF0020FCF733FB0520FDF742FFB0
:1045A00010BD10B50C4649064007890E2022400F69
:1045B00011400918052003F01AFAA106890E0620F9
:1045C00003F015FA012010BD70B505460C46A9424E
:1045D00001D20D460446A906890E0E2003F007FA03
:1045E000A9090F2003F003FAA106890E102003F099
:1045F000FEF9A109112003F0FAF9012070BD0000B5
:1046000010B5114C012020700D2161700C22A27098
:1046100061710E212171E070A220A0712E20E07343
:10462000742020741121072003F0E1F9617808203B
:1046300003F0DDF9A178092003F0D9F961790A20A6
:1046400003F0D5F9012010BD1815002038B5054636
:1046500069461220FCF734FEFF24012004F0DCFD43
:1046600069461220FCF72CFE68460078284201D0EB
:10467000012038BD641E2406240EEED1002038BD72
:1046800008B508F00BF90C2008F000FA694608702C
:1046900010210C2008F038FA0C2008F0F7F96946D0
:1046A0000870FF21272008F02FFA272008F0EEF9E4
:1046B000694608700878FF2801D0002008BD012055
:1046C00008BD000010B50348FDF7D8F80148FCF715
:1046D000E9FE10BDB00A00203EB500241549164879
:1046E00000940194029412C0046003460121042244
:1046F0000833446016C344618461C461FF2244628C
:10470000C23284620262C1620838FCF721FF0028CD
:1047100001D0FCF7D3F901200003019000040290BE
:10472000009469460448FCF735FE002801D0FCF7E8
:10473000C5F93EBD00240140B00A002010B5134861
:1047400011490160124941600021816001614161AC
:1047500081610122C161C2600162FDF7C1FB0028D5
:1047600001D0FCF7ABF900210848FDF755FB002804
:1047700001D0FCF7A3F900210448FDF772FB0028E3
:1047800001D0FCF79BF910BD00540040FC0A00204A
:104790000E090020054910B5084600222038FEF712
:1047A00099F9142004F030FD10BD0000F013002032
:1047B00010B5002203490448FEF76AF9142004F0FA
:1047C00023FD10BD1A070020D013002010B50A48A1
:1047D000084901607F228260002141600161FF225F
:1047E0004161C2608161FEF7A3F9002801D0FCF7A6
:1047F00065F910BD00280040D013002070B518489E
:1048000016490160FF210531416000248460446144
:1048100038210461C1610462446249018462C1605B
:10482000012507210563C162690244638161FEF7C6
:10483000E5FAFFF725FF0B49012802D00C70012093
:1048400070BD0D7007F072FFFCF725FAFFF730FD21
:104850000128F4D1FFF722FDF1E70000003001400C
:10486000441400201E07002010B5054B1870597025
:1048700019469A70084600222038FEF733FA10BD18
:10488000F013002010B5054BD87059709A700022B3
:1048900019460348FEF7C2F910BD00001A070020B0
:1048A000D013002010B586B000240094164801945F
:1048B000029403940494134905940160134984609D
:1048C000416013490461C160FEF7D4FC002801D0A7
:1048D000FCF7F4F801200003009069460A48FEF74F
:1048E00045FD002801D0FCF7E9F8202004A911C1FA
:1048F00005480839FEF780FC002801D0FCF7DEF8F7
:1049000006B010BD0004004004140020BF120000D7
:104910000F270000F8B50C46154606466946FCF719
:10492000CFFC012801D00020F8BD69460878002D91
:1049300001D0204300E0A0430870C1B2304603F02C
:1049400056F8F8BD70B5124886B042690121490495
:104950000A43426142690A400592426949000A439A
:104960004261406901240840059008200025032683
:104970006A4671C269460748FDF798F9E0036A463E
:1049800071C209206946C006FDF790F906B070BDF6
:104990000010024000040048F8B501240925FF2753
:1049A000E403ED06194E2D37002819D0012816D141
:1049B000002208213046FDF722FA0122214628462E
:1049C000FDF71DFA384604F01FFC00222146284658
:1049D000FDF715FA002208213046FDF710FAF8BD60
:1049E000002221462846FDF70AFA01220821304616
:1049F000FDF705FA384604F007FC0022082130468E
:104A0000FDF7FDF9002221462846E6E700040048AC
:104A100002A004F007F800F02DF800004E4D495FA9
:104A200048616E646C6572204552524F52210A00F3
:104A30008307FF22DB0E9A408907090E9940002860
:104A40000BDA0007000F0838830808489B00181885
:104A5000C36993430B43C3617047830804489B00B9
:104A60001B181868904308431860704700ED00E079
:104A700000E400E0BFF34F8F04490348C860BFF370
:104A80004F8F00BFFDE700000400FA0500ED00E0D5
:104A900070B500242046B030C0B2002102F0C4FB43
:104AA0000021012002F0C0FB0021102002F0BCFB1D
:104AB00000250121002002F0B7FB6D1CEDB2802D16
:104AC000F7D3641CE4B2082CE4D370BDFFB581B009
:104AD000174600260C4611E02146019800F0D8F850
:104AE000019D07E00A980121805D761C02F09CFB85
:104AF0006D1CEDB2BD42F5D3641CE4B2049884424F
:104B0000EAD305B0F0BD10B500F074F80021AE2076
:104B100002F08AFB0021D52002F086FB00218020D4
:104B200002F082FB0021A82002F07EFB00213F2042
:104B300002F07AFB0021D32002F076FB0021084628
:104B400002F072FB0021402002F06EFB00218D205C
:104B500002F06AFB0021142002F066FB00212020F5
:104B600002F062FB0021022002F05EFB0021A02087
:104B700002F05AFB0021C02002F056FB0021DA208F
:104B800002F052FB0021122002F04EFB0021812096
:104B900002F04AFB0021EF2002F046FB0021D92061
:104BA00002F042FB0021F12002F03EFB0021DB205D
:104BB00002F03AFB0021302002F036FB0021A42055
:104BC00002F032FB0021A62002F02EFB0021AF20D4
:104BD00002F02AFB00218D2002F026FB0021142088
:104BE00002F022FB0021AF2002F01EFBFFF750FF76
:104BF00010BD0000F0B5224887B042690121C90408
:104C00000A43426142690A400592426949100A43D7
:104C1000426140694D11084000241A4F0095012659
:104C2000059002946946019603943846FDF73EF8D4
:104C300003941548154C0090694601962046FDF7EF
:104C400035F8012229463846FDF7D9F8FF202D30E6
:104C500004F0DAFA012211032046FDF7D0F8012210
:104C600091022046FDF7CBF80122D1022046FDF744
:104C7000C6F8012204212046FDF7C1F807B0F0BDB7
:104C80000010024000080048041C00000004004816
:104C900010B50446B031C8B2002102F0C5FA2009AF
:104CA0000021103002F0C0FA2007000F0121084354
:104CB000002102F0B9FA10BDF7B50F4600255401E6
:104CC0000098FFF7E5FF0D4E0121305D02F0ACFAD0
:104CD0006D1CEDB2641C102DF6D37F1CF9B2009848
:104CE000FFF7D6FF0025305D012102F09DFA6D1C13
:104CF000EDB2641C102DF6D3FEBD0000E2E5000805
:104D0000F7B5482042430F46002614460098FFF7A7
:104D1000BFFF144D0121285D02F086FA761CF6B221
:104D2000641C182EF6D3781CC1B20098FFF7B0FFB0
:104D30000026285D012102F077FA761CF6B2641C89
:104D4000182EF6D3BF1CF9B20098FFF7A1FF00267A
:104D5000285D012102F068FA761CF6B2641C182E58
:104D6000F6D3FEBD09CE0008F7B5482042430F46F2
:104D7000002614460098FFF78BFF144D0121285D93
:104D800002F08EFA761CF6B2641C182EF6D3781C4C
:104D9000C1B20098FFF77CFF0026285D012102F0D8
:104DA0007FFA761CF6B2641C182EF6D3BF1CF9B23B
:104DB0000098FFF76DFF0026285D012102F070FAD0
:104DC000761CF6B2641C182EF6D3FEBD09CE000880
:104DD000F7B50F46303A0024D5B2C9B20098FFF7B4
:104DE00057FF2E010D4D3019285C012102F01CFAED
:104DF000641CE4B2082CF6D37F1CF9B20098FFF7CC
:104E000047FF002430194019007A012102F00CFA02
:104E1000641CE4B2082CF5D3FEBD0000D9050020C7
:104E2000F7B50F46303A0024D5B2C9B20098FFF763
:104E30002FFF2E010D4D3019285C012102F030FAB0
:104E4000641CE4B2082CF6D37F1CF9B20098FFF77B
:104E50001FFF002430194019007A012102F020FAC6
:104E6000641CE4B2082CF5D3FEBD0000D905002077
:104E7000F7B50F46303A0026D4B2C9B20098FFF712
:104E800007FF2420154D4443A019285C012102F09E
:104E9000CBF9761CF6B20C2EF6D3781CC1B2009872
:104EA000FFF7F6FE0026A0194019007B012102F051
:104EB000BBF9761CF6B20C2EF5D3BF1CF9B20098E4
:104EC000FFF7E6FE0026A0194019007E012102F03E
:104ED000ABF9761CF6B20C2EF5D3FEBD29040020EA
:104EE000F7B50F46303A0026D4B2C9B20098FFF7A2
:104EF000CFFE2420154D4443A019285C012102F067
:104F0000CFF9761CF6B20C2EF6D3781CC1B20098FD
:104F1000FFF7BEFE0026A0194019007B012102F018
:104F2000BFF9761CF6B20C2EF5D3BF1CF9B200986F
:104F3000FFF7AEFE0026A0194019007E012102F005
:104F4000AFF9761CF6B20C2EF5D3FEBD2904002075
:104F5000F7B515461848FBF726F9C4B22846FBF703
:104F600022F900066608470E002421E000226000B6
:104F700041198E4618E053000F499C46C95C2B5CD2
:104F800099420FD10C4B6146C918734649785B783A
:104F9000994207D1009821010818C0B20199FFF782
:104FA0008BFE03E0521CD2B2B242E4D3641CE4B2E2
:104FB000BC42DBD3FEBD000061E5000870B50546CC
:104FC0000C460846FBF7EFF84008C0004021081ADD
:104FD000C0B222462946FFF7BBFF70BDF7B51546A4
:104FE0001848FBF7E0F8C4B22846FBF7DCF80006E7
:104FF0006608470E002422E00022600041198E4618
:1050000019E053000F499C46C95C2B5C994210D1B2
:105010000C4B6146C918734649785B78994208D1B0
:105020001820009960434018C0B20199FFF768FE4C
:1050300003E0521CD2B2B242E3D3641CE4B2BC42DD
:10504000DAD3FEBD62CD000870B505460C460846B1
:10505000FBF7A9F80006400E0C2148434021081A2E
:10506000C0B222462946FFF7B9FF70BD70B50546AC
:105070000C460846FBF797F80006400E0C21484303
:105080004021081AC0B22246294600F001F870BD3E
:10509000F7B515461848FBF786F8C4B22846FBF763
:1050A00082F800066608470E002422E00022600015
:1050B00041198E4619E053000F499C46C95C2B5C90
:1050C000994210D10C4B6146C918734649785B78F8
:1050D000994208D11820009960434018C0B2019944
:1050E000FFF742FE03E0521CD2B2B242E3D3641C8B
:1050F000E4B2BC42DAD3FEBD62CD0008F8B5054685
:10510000FC48FD4E00783446603485427ED0FFF77F
:10511000BFFC002D7BD0012D7AD0022D79D0032D3C
:1051200078D0052D77D0062D76D0072D75D0082D97
:1051300074D0272D73D0282D72D0092D71D03E2D1B
:1051400070D00A2D6FD00B2D6ED00C2D6DD00D2D83
:105150006CD00E2D6BD00F2D6AD0102D69D0112D73
:1051600068D0122D67D0132D66D0142D7ED0152D4A
:105170007DD0162D7CD0172D7BD0212D7AD0222DDD
:1051800079D0232D78D0242D77D01E2D76D01F2DC9
:1051900075D0202D74D03A2D73D03B2D72D0252D93
:1051A00071D0262D70D02E2D6FD0302D6ED0322D97
:1051B0006DD0312D6CD0332D6BD0352D6AD0372D7D
:1051C00069D0392D68D03C2D67D03D2D66D03F2D5C
:1051D0006FD0402D6ED0412D6DD0432D6CD0442D1D
:1051E0006BD0452D6AD0462D69D0482D68D04A2D08
:1051F00067D04B2D72D04C2D71D04D2D70D04E2DCF
:105200006FD04F2D6ED0502D6DD016E02DE0ABE05D
:10521000ADE0B7E0BCE0F2E0F3E0F8E0F9E0FAE09E
:10522000FBE000E105E10BE117E11FE142E1BFE135
:10523000DDE1FBE119E237E258E2512D73D0522D46
:1052400072D0542D71D0552D70D0532D6FD0572D55
:105250006ED0592D6DD05A2D6CD05B2D6BD05C2D3E
:105260006AD05D2D69D05E2D68D018E060E27FE2E3
:105270009EE2BCE2DAE2F8E216E335E354E356E3F9
:1052800057E358E362E36EE377E37DE3E4E3E9E3C6
:10529000EAE3EBE3FDE3FDE3FDE3FDE3FDE3042DE2
:1052A0006FD0182D01D100F06DFF192D0AD100F03B
:1052B00071FFF3E3F3E3F3E3F3E3F3E3F3E3F3E3A4
:1052C000F3E3F3E31A2D01D100F0B4FF1B2D01D15C
:1052D00000F0B3FF1C2D07D100F0E7FFE7E3E7E3A1
:1052E000E7E3E7E3E7E3E7E31D2D01D100F0E0FFAB
:1052F000814C8034292D01D101F013F82A2D01D1E0
:1053000001F08CF82B2D01D101F0C1F82C2D01D129
:1053100001F0D2F82D2D01D101F008F920342F2D04
:105320000DD101F018F9EFE3EFE3EFE3EFE3EFE383
:10533000EFE3EFE3EFE3EFE3EFE3EFE3EFE3362D4C
:1053400001D101F043F9382D01D101F08DFD472D38
:1053500001D101F0BFFD492D01D101F01BFF562DF8
:1053600001D101F02EFFFDE3FFF792FBFBE761485F
:105370000021401C0090082380220846FFF7A6FB6E
:10538000F1E7F0E35DA10020FFF718FE5EA168E3FE
:105390005AA10020FFF712FE5EA10520FFF754FE80
:1053A0005FA203212020FFF7D3FD3F2203214020ED
:1053B000FFF70EFD607B6421FAF796FE3030C2B233
:1053C00003214820FFF704FD607B6421FAF78CFE7F
:1053D00008460A21FAF788FE02463032032150209F
:1053E000FFF7F6FC607B6421FAF77EFE08460A218F
:1053F000FAF77AFE0A46303203215820FEE34AA12A
:105400008FE349A10020FFF7D9FD4AA1BFE746A1DC
:1054100029E345A1F3E34AA15FE349A10020FFF797
:10542000CDFD4AA1B3E74CA10020FFF70DFE4DA131
:1054300004E049A10020FFF707FE34A1042084E224
:10544000F16C112088472DA10020FFF7B7FD47A17F
:105450000220FFF7F9FD47A176E2316C0120884771
:1054600026A10020FFF7AAFD45A190E70022802198
:105470004648FCF7C4FC46A10020FFF79FFD3122FF
:1054800002210420FFF72CFD3A2202211020FFF711
:1054900027FD41A202211C20FFF7FAFD322205213F
:1054A0000420FFF7E5FC3A2205211020FFF7E0FC7D
:1054B0003CA218E236A10020FFF780FD3122022134
:1054C0000420FFF7D5FC3A2202211020FFF7D0FC80
:1054D00031A202211C20FFF781FD32220521042088
:1054E000FFF7FEFC3A2205211020FFF7F9FC2DA260
:1054F00019E200002800002044070020BBB6D3AD0D
:10550000BBD8BCD200000000D1E9D6A4CAA7B0DC49
:1055100000000000D1E9D6A4CDA8B9FD000000002C
:10552000CAD6D6B800000000CCEDBCD3CAD6D6B8D7
:1055300000000000C7EBD4D9C2BCD2BBB4CE00007F
:10554000C9BEB3FDCAD6D6B800000000C9BEB3FDBF
:10555000CAA7B0DC00000000BBD6B8B4B3F6B3A74E
:1055600000000000B3C9B9A600000000B5E7C1BF44
:10557000B5CD0000C7EBB8FCBBBBB5E7B3D80000A6
:10558000D1E9D6A4B9DCC0EDD4B1000000140048C4
:10559000B2CBB5A500000000CAD6D6B8C9E8D6C3BC
:1055A00000000000C3DCC2EBC9E8D6C30000000065
:1055B000FA490020FFF702FD332202210420FFF701
:1055C0008FFC3A2202211020FFF78AFCF4A202216C
:1055D0001C20FFF75DFD342205210420FFF748FC65
:1055E0003A2205211020FFF743FCF0A261E7EB49C6
:1055F0000020FFF7E3FC332202210420FFF738FCF0
:105600003A2202211020FFF733FCE5A202211C20E0
:10561000FFF7E4FC342205210420FFF761FC3A2265
:1056200005211020FFF75CFCE0A261E7DB490020C8
:10563000FFF7C4FC352202210420FFF751FC3A2277
:1056400002211020FFF74CFCDBA202211C20FFF7F7
:105650001FFD362205210420FFF70AFC3A2205210E
:105660001020FFF705FCD7A2DBE3CC490020FFF7B1
:10567000A5FC352202210420FFF7FAFB3A22022181
:105680001020FFF7F5FBCCA202211C20FFF7A6FC9F
:10569000362205210420FFF723FC3A2205211020A1
:1056A000FFF71EFCC7A223E7BC4900200831FFF723
:1056B00085FC312202210420FFF712FC3A2202214C
:1056C0001020FFF70DFCB54A0221683A1C20FFF7B5
:1056D000DFFC322205210420FFF7CAFB3A22052114
:1056E0001020FFF7C5FBAD4A503A9AE3AB490020C2
:1056F0000831FFF763FC312202210420FFF7B8FBD9
:105700003A2202211020FFF7B3FBA44A0221683A93
:105710001C20FFF763FC322205210420FFF7E0FB89
:105720003A2205211020FFF7DBFB9C4A503ADFE6C6
:105730009A4900201431FFF741FC31220221042054
:10574000FFF7CEFB3A2202211020FFF7C9FBA0A2EF
:1057500002211C20FFF79CFC322205210420FFF7C8
:1057600087FB3A2205211020FFF782FB9BA258E31A
:105770008A4900201431FFF721FC31220221042044
:10578000FFF776FB3A2202211020FFF771FB90A26F
:1057900002211C20FFF722FC322205210420FFF702
:1057A0009FFB3A2205211020FFF79AFB8BA2E4E32E
:1057B0007BA10020FFF702FC312202210420FFF729
:1057C0008FFB3A2202211020FFF78AFB86A20221DA
:1057D0001C20FFF75DFC322205210420FFF748FB67
:1057E0003A2205211020FFF743FB82A219E36CA1A6
:1057F0000020FFF7E3FB312202210420FFF738FBF2
:105800003A2202211020FFF733FB77A202211C204D
:10581000FFF7E4FB322205210420FFF761FB3A2267
:1058200005211020FFF75CFB72A2A6E35FA1002018
:10583000FFF7C4FB312202210420FFF751FB3A227B
:1058400002211020FFF74CFB6DA202211C20FFF764
:105850001FFC322205210420FFF70AFB3A22052112
:105860001020FFF705FB69A2DBE250A10020FFF743
:10587000A5FB312202210420FFF7FAFA3A22022185
:105880001020FFF7F5FA5EA202211C20FFF7A6FB0D
:10589000322205210420FFF723FB3A2205211020A4
:1058A000FFF71EFB59A268E340A10020FFF786FB2B
:1058B000332202210420FFF713FB3A220221102099
:1058C000FFF70EFB54A202211C20FFF7E1FB34225C
:1058D00005210420FFF7CCFA3A2205211020FFF71A
:1058E000C7FA2E4A383A9CE230A10020FFF766FB47
:1058F000332202210420FFF7BBFA3A2202211020B2
:10590000FFF7B6FA44A202211C20FFF767FB3422FE
:1059100005210420FFF7E4FA3A2205211020FFF7C1
:10592000DFFA1E4A383A28E31C49503900E22BA11D
:10593000FEE130A1FCE138A10020FFF73FFB39A1D7
:105940000220FFF793FB3AA1052065E332A1002076
:10595000FFF734FB33A10220FFF776FB34A10520CB
:10596000FFF784FBFFE411A10020FFF727FB0B49A1
:1059700002203839FFF768FBFEE308490020383978
:10598000FFF762FB2DA159E511A10020FFF716FBDF
:105990002CA10220FFF758FB2CA1D5E79055000859
:1059A000BFA8C6ACC9E8D6C300000000CFB5CDB3D0
:1059B000C9E8D6C300000000BCC7C2BCB2E9D1AF81
:1059C00000000000D4B6B3CCC9E8D6C30000000084
:1059D000CCEDBCD3C3DCC2EB00000000C9BEB3FDFC
:1059E000C3DCC2EB00000000CCEDBCD3BFA8C6AC4A
:1059F00000000000C9BEB3FDBFA8C6AC0000000097
:105A0000C9E8D6C3CAB1BCE400000000C9E8D6C3E7
:105A1000D2F4C1BF00000000BFAAC3C5B7BDCABD54
:105A200000000000B5A5D2BBB7BDCABD0000000094
:105A3000D7E9BACFB7BDCABD00000000C7EBB5C8F3
:105A4000B4FD0000C7EBCAE4C8EB0000C1F9CEBB4F
:105A5000C3DCC2EB00000000FE490020FFF7AEFAF5
:105A6000FDA1E1E2FB4982E1FA4979E1FD4900202B
:105A7000FFF7A4FAFB4905201831FFF7E5FAF54ACC
:105A80000321121D2420FFF763FA3F220321442043
:105A900013E020E022E027E02CE041E046E068E06F
:105AA00087E02FE135E13AE140E146E148E14EE1AE
:105AB00054E15AE160E166E18EE1FFF789F9A07BEC
:105AC0000A21FAF711FB3030C2B203214C20FFF754
:105AD0007FF9A07B76E1DF490C314FE1E2A002F0D3
